{
  "_format": "hh-sol-artifact-1",
  "contractName": "EventFactory",
  "sourceName": "contracts/EventFactory.sol",
  "abi": [
    {
      "anonymous": false,
      "inputs": [
        {
          "indexed": true,
          "internalType": "address",
          "name": "eventAddress",
          "type": "address"
        },
        {
          "indexed": false,
          "internalType": "string",
          "name": "name",
          "type": "string"
        },
        {
          "indexed": true,
          "internalType": "address",
          "name": "organizer",
          "type": "address"
        }
      ],
      "name": "EventCreated",
      "type": "event"
    },
    {
      "inputs": [
        {
          "internalType": "string",
          "name": "_name",
          "type": "string"
        },
        {
          "internalType": "uint256",
          "name": "_date",
          "type": "uint256"
        },
        {
          "internalType": "uint256",
          "name": "_price",
          "type": "uint256"
        },
        {
          "internalType": "uint256",
          "name": "_maxTickets",
          "type": "uint256"
        },
        {
          "internalType": "string",
          "name": "_imageUrl",
          "type": "string"
        }
      ],
      "name": "createEvent",
      "outputs": [],
      "stateMutability": "nonpayable",
      "type": "function"
    },
    {
      "inputs": [
        {
          "internalType": "uint256",
          "name": "",
          "type": "uint256"
        }
      ],
      "name": "deployedEvents",
      "outputs": [
        {
          "internalType": "address",
          "name": "",
          "type": "address"
        }
      ],
      "stateMutability": "view",
      "type": "function"
    },
    {
      "inputs": [],
      "name": "getDeployedEvents",
      "outputs": [
        {
          "internalType": "address[]",
          "name": "",
          "type": "address[]"
        }
      ],
      "stateMutability": "view",
      "type": "function"
    }
  ],
  "bytecode": "0x608060405234801561001057600080fd5b50614b89806100206000396000f3fe60806040523480156200001157600080fd5b5060043610620000465760003560e01c80633812783e146200004b578063e6ba2690146200006d578063eade22f6146200008d575b600080fd5b62000055620000c3565b60405162000064919062000429565b60405180910390f35b6200008b6004803603810190620000859190620005fe565b62000153565b005b620000ab6004803603810190620000a59190620006c4565b620002d9565b604051620000ba919062000707565b60405180910390f35b606060008054806020026020016040519081016040528092919081815260200182805480156200014957602002820191906000526020600020905b8160009054906101000a900473ffffffffffffffffffffffffffffffffffffffff1673ffffffffffffffffffffffffffffffffffffffff1681526020019060010190808311620000fe575b5050505050905090565b60008585858585604051620001689062000319565b62000178959493929190620007be565b604051809103906000f08015801562000195573d6000803e3d6000fd5b5090508073ffffffffffffffffffffffffffffffffffffffff1663f2fde38b336040518263ffffffff1660e01b8152600401620001d3919062000707565b600060405180830381600087803b158015620001ee57600080fd5b505af115801562000203573d6000803e3d6000fd5b505050506000819080600181540180825580915050600190039060005260206000200160009091909190916101000a81548173ffffffffffffffffffffffffffffffffffffffff021916908373ffffffffffffffffffffffffffffffffffffffff1602179055503373ffffffffffffffffffffffffffffffffffffffff168173ffffffffffffffffffffffffffffffffffffffff167f712a0fd8a85203aa2a7d53a268ac4914a8878d30191e800597dab93cd2b9200c88604051620002c9919062000829565b60405180910390a3505050505050565b60008181548110620002ea57600080fd5b906000526020600020016000915054906101000a900473ffffffffffffffffffffffffffffffffffffffff1681565b614306806200084e83390190565b600081519050919050565b600082825260208201905092915050565b6000819050602082019050919050565b600073ffffffffffffffffffffffffffffffffffffffff82169050919050565b6000620003808262000353565b9050919050565b620003928162000373565b82525050565b6000620003a6838362000387565b60208301905092915050565b6000602082019050919050565b6000620003cc8262000327565b620003d8818562000332565b9350620003e58362000343565b8060005b838110156200041c57815162000400888262000398565b97506200040d83620003b2565b925050600181019050620003e9565b5085935050505092915050565b60006020820190508181036000830152620004458184620003bf565b905092915050565b6000604051905090565b600080fd5b600080fd5b600080fd5b600080fd5b6000601f19601f8301169050919050565b7f4e487b7100000000000000000000000000000000000000000000000000000000600052604160045260246000fd5b620004b6826200046b565b810181811067ffffffffffffffff82111715620004d857620004d76200047c565b5b80604052505050565b6000620004ed6200044d565b9050620004fb8282620004ab565b919050565b600067ffffffffffffffff8211156200051e576200051d6200047c565b5b62000529826200046b565b9050602081019050919050565b82818337600083830152505050565b60006200055c620005568462000500565b620004e1565b9050828152602081018484840111156200057b576200057a62000466565b5b6200058884828562000536565b509392505050565b600082601f830112620005a857620005a762000461565b5b8135620005ba84826020860162000545565b91505092915050565b6000819050919050565b620005d881620005c3565b8114620005e457600080fd5b50565b600081359050620005f881620005cd565b92915050565b600080600080600060a086880312156200061d576200061c62000457565b5b600086013567ffffffffffffffff8111156200063e576200063d6200045c565b5b6200064c8882890162000590565b95505060206200065f88828901620005e7565b94505060406200067288828901620005e7565b93505060606200068588828901620005e7565b925050608086013567ffffffffffffffff811115620006a957620006a86200045c565b5b620006b78882890162000590565b9150509295509295909350565b600060208284031215620006dd57620006dc62000457565b5b6000620006ed84828501620005e7565b91505092915050565b620007018162000373565b82525050565b60006020820190506200071e6000830184620006f6565b92915050565b600081519050919050565b600082825260208201905092915050565b60005b838110156200076057808201518184015260208101905062000743565b60008484015250505050565b6000620007798262000724565b6200078581856200072f565b93506200079781856020860162000740565b620007a2816200046b565b840191505092915050565b620007b881620005c3565b82525050565b600060a0820190508181036000830152620007da81886200076c565b9050620007eb6020830187620007ad565b620007fa6040830186620007ad565b620008096060830185620007ad565b81810360808301526200081d81846200076c565b90509695505050505050565b600060208201905081810360008301526200084581846200076c565b90509291505056fe60806040523480156200001157600080fd5b5060405162004306380380620043068339818101604052810190620000379190620004a4565b336040518060400160405280600f81526020017f566572794576656e745469636b657400000000000000000000000000000000008152506040518060400160405280600381526020017f56455400000000000000000000000000000000000000000000000000000000008152508160009081620000b59190620007ab565b508060019081620000c79190620007ab565b505050600073ffffffffffffffffffffffffffffffffffffffff168173ffffffffffffffffffffffffffffffffffffffff16036200013f5760006040517f1e4fbdf7000000000000000000000000000000000000000000000000000000008152600401620001369190620008d7565b60405180910390fd5b62000150816200021060201b60201c565b506040518060e00160405280868152602001858152602001848152602001838152602001600081526020016001151581526020018281525060086000820151816000019081620001a19190620007ab565b506020820151816001015560408201518160020155606082015181600301556080820151816004015560a08201518160050160006101000a81548160ff02191690831515021790555060c0820151816006019081620002019190620007ab565b509050505050505050620008f4565b6000600760009054906101000a900473ffffffffffffffffffffffffffffffffffffffff16905081600760006101000a81548173ffffffffffffffffffffffffffffffffffffffff021916908373ffffffffffffffffffffffffffffffffffffffff1602179055508173ffffffffffffffffffffffffffffffffffffffff168173ffffffffffffffffffffffffffffffffffffffff167f8be0079c531659141344cd1fd0a4f28419497f9722a3daafe3b4186f6b6457e060405160405180910390a35050565b6000604051905090565b600080fd5b600080fd5b600080fd5b600080fd5b6000601f19601f8301169050919050565b7f4e487b7100000000000000000000000000000000000000000000000000000000600052604160045260246000fd5b6200033f82620002f4565b810181811067ffffffffffffffff8211171562000361576200036062000305565b5b80604052505050565b600062000376620002d6565b905062000384828262000334565b919050565b600067ffffffffffffffff821115620003a757620003a662000305565b5b620003b282620002f4565b9050602081019050919050565b60005b83811015620003df578082015181840152602081019050620003c2565b60008484015250505050565b600062000402620003fc8462000389565b6200036a565b905082815260208101848484011115620004215762000420620002ef565b5b6200042e848285620003bf565b509392505050565b600082601f8301126200044e576200044d620002ea565b5b815162000460848260208601620003eb565b91505092915050565b6000819050919050565b6200047e8162000469565b81146200048a57600080fd5b50565b6000815190506200049e8162000473565b92915050565b600080600080600060a08688031215620004c357620004c2620002e0565b5b600086015167ffffffffffffffff811115620004e457620004e3620002e5565b5b620004f28882890162000436565b955050602062000505888289016200048d565b945050604062000518888289016200048d565b93505060606200052b888289016200048d565b925050608086015167ffffffffffffffff8111156200054f576200054e620002e5565b5b6200055d8882890162000436565b9150509295509295909350565b600081519050919050565b7f4e487b7100000000000000000000000000000000000000000000000000000000600052602260045260246000fd5b60006002820490506001821680620005bd57607f821691505b602082108103620005d357620005d262000575565b5b50919050565b60008190508160005260206000209050919050565b60006020601f8301049050919050565b600082821b905092915050565b6000600883026200063d7fffffffffffffffffffffffffffffffffffffffffffffffffffffffffffffffff82620005fe565b620006498683620005fe565b95508019841693508086168417925050509392505050565b6000819050919050565b60006200068c62000686620006808462000469565b62000661565b62000469565b9050919050565b6000819050919050565b620006a8836200066b565b620006c0620006b78262000693565b8484546200060b565b825550505050565b600090565b620006d7620006c8565b620006e48184846200069d565b505050565b5b818110156200070c5762000700600082620006cd565b600181019050620006ea565b5050565b601f8211156200075b576200072581620005d9565b6200073084620005ee565b8101602085101562000740578190505b620007586200074f85620005ee565b830182620006e9565b50505b505050565b600082821c905092915050565b6000620007806000198460080262000760565b1980831691505092915050565b60006200079b83836200076d565b9150826002028217905092915050565b620007b6826200056a565b67ffffffffffffffff811115620007d257620007d162000305565b5b620007de8254620005a4565b620007eb82828562000710565b600060209050601f8311600181146200082357600084156200080e578287015190505b6200081a85826200078d565b8655506200088a565b601f1984166200083386620005d9565b60005b828110156200085d5784890151825560018201915060208501945060208101905062000836565b868310156200087d578489015162000879601f8916826200076d565b8355505b6001600288020188555050505b505050505050565b600073ffffffffffffffffffffffffffffffffffffffff82169050919050565b6000620008bf8262000892565b9050919050565b620008d181620008b2565b82525050565b6000602082019050620008ee6000830184620008c6565b92915050565b613a0280620009046000396000f3fe6080604052600436106101405760003560e01c8063642b5f9b116100b6578063a22cb4651161006f578063a22cb46514610422578063b88d4fde1461044b578063c87b56dd14610474578063e95a644f146104b1578063e985e9c5146104da578063f2fde38b1461051757610140565b8063642b5f9b1461030b5780636d00fa681461034857806370a0823114610378578063715018a6146103b55780638da5cb5b146103cc57806395d89b41146103f757610140565b806323b872dd1161010857806323b872dd1461022a57806324600fc314610253578063254641e41461026a57806342842e0e1461029b578063573c80fa146102c45780636352211e146102ce57610140565b806301ffc9a71461014557806306fdde0314610182578063081812fc146101ad578063095ea7b3146101ea5780630f1c296314610213575b600080fd5b34801561015157600080fd5b5061016c6004803603810190610167919061247e565b610540565b60405161017991906124c6565b60405180910390f35b34801561018e57600080fd5b506101976105a1565b6040516101a49190612571565b60405180910390f35b3480156101b957600080fd5b506101d460048036038101906101cf91906125c9565b610633565b6040516101e19190612637565b60405180910390f35b3480156101f657600080fd5b50610211600480360381019061020c919061267e565b61064f565b005b34801561021f57600080fd5b50610228610665565b005b34801561023657600080fd5b50610251600480360381019061024c91906126be565b61068d565b005b34801561025f57600080fd5b5061026861078f565b005b34801561027657600080fd5b5061027f610849565b6040516102929796959493929190612720565b60405180910390f35b3480156102a757600080fd5b506102c260048036038101906102bd91906126be565b610996565b005b6102cc6109b6565b005b3480156102da57600080fd5b506102f560048036038101906102f091906125c9565b610b45565b6040516103029190612637565b60405180910390f35b34801561031757600080fd5b50610332600480360381019061032d91906125c9565b610b57565b60405161033f91906124c6565b60405180910390f35b34801561035457600080fd5b5061035d610b77565b60405161036f9695949392919061279d565b60405180910390f35b34801561038457600080fd5b5061039f600480360381019061039a9190612805565b610c51565b6040516103ac9190612832565b60405180910390f35b3480156103c157600080fd5b506103ca610d0b565b005b3480156103d857600080fd5b506103e1610d1f565b6040516103ee9190612637565b60405180910390f35b34801561040357600080fd5b5061040c610d49565b6040516104199190612571565b60405180910390f35b34801561042e57600080fd5b5061044960048036038101906104449190612879565b610ddb565b005b34801561045757600080fd5b50610472600480360381019061046d91906129ee565b610df1565b005b34801561048057600080fd5b5061049b600480360381019061049691906125c9565b610e16565b6040516104a89190612571565b60405180910390f35b3480156104bd57600080fd5b506104d860048036038101906104d391906125c9565b610f29565b005b3480156104e657600080fd5b5061050160048036038101906104fc9190612a71565b610fce565b60405161050e91906124c6565b60405180910390f35b34801561052357600080fd5b5061053e60048036038101906105399190612805565b611062565b005b6000634906490660e01b7bffffffffffffffffffffffffffffffffffffffffffffffffffffffff1916827bffffffffffffffffffffffffffffffffffffffffffffffffffffffff1916148061059a5750610599826110e8565b5b9050919050565b6060600080546105b090612ae0565b80601f01602080910402602001604051908101604052809291908181526020018280546105dc90612ae0565b80156106295780601f106105fe57610100808354040283529160200191610629565b820191906000526020600020905b81548152906001019060200180831161060c57829003601f168201915b5050505050905090565b600061063e826111ca565b5061064882611252565b9050919050565b610661828261065c61128f565b611297565b5050565b61066d6112a9565b6000600860050160006101000a81548160ff021916908315150217905550565b600073ffffffffffffffffffffffffffffffffffffffff168273ffffffffffffffffffffffffffffffffffffffff16036106ff5760006040517f64a0ae920000000000000000000000000000000000000000000000000000000081526004016106f69190612637565b60405180910390fd5b6000610713838361070e61128f565b611330565b90508373ffffffffffffffffffffffffffffffffffffffff168173ffffffffffffffffffffffffffffffffffffffff1614610789578382826040517f64283d7b00000000000000000000000000000000000000000000000000000000815260040161078093929190612b11565b60405180910390fd5b50505050565b6107976112a9565b600860050160009054906101000a900460ff1615806107ba575060086001015442115b6107f9576040517f08c379a00000000000000000000000000000000000000000000000000000000081526004016107f090612b94565b60405180910390fd5b610801610d1f565b73ffffffffffffffffffffffffffffffffffffffff166108fc479081150290604051600060405180830381858888f19350505050158015610846573d6000803e3d6000fd5b50565b600880600001805461085a90612ae0565b80601f016020809104026020016040519081016040528092919081815260200182805461088690612ae0565b80156108d35780601f106108a8576101008083540402835291602001916108d3565b820191906000526020600020905b8154815290600101906020018083116108b657829003601f168201915b5050505050908060010154908060020154908060030154908060040154908060050160009054906101000a900460ff169080600601805461091390612ae0565b80601f016020809104026020016040519081016040528092919081815260200182805461093f90612ae0565b801561098c5780601f106109615761010080835404028352916020019161098c565b820191906000526020600020905b81548152906001019060200180831161096f57829003601f168201915b5050505050905087565b6109b183838360405180602001604052806000815250610df1565b505050565b600860050160009054906101000a900460ff16610a08576040517f08c379a00000000000000000000000000000000000000000000000000000000081526004016109ff90612c00565b60405180910390fd5b60086003015460086004015410610a54576040517f08c379a0000000000000000000000000000000000000000000000000000000008152600401610a4b90612c6c565b60405180910390fd5b600860020154341015610a9c576040517f08c379a0000000000000000000000000000000000000000000000000000000008152600401610a9390612cd8565b60405180910390fd5b60086004016000815480929190610ab290612d27565b919050555060006008600401549050610acb338261154a565b610add81610ad883611643565b61177d565b600860020154341115610b42573373ffffffffffffffffffffffffffffffffffffffff166108fc60086002015434610b159190612d6f565b9081150290604051600060405180830381858888f19350505050158015610b40573d6000803e3d6000fd5b505b50565b6000610b50826111ca565b9050919050565b600f6020528060005260406000206000915054906101000a900460ff1681565b606060008060008060006008600001600860010154600860020154600860030154600860040154600860050160009054906101000a900460ff16858054610bbd90612ae0565b80601f0160208091040260200160405190810160405280929190818152602001828054610be990612ae0565b8015610c365780601f10610c0b57610100808354040283529160200191610c36565b820191906000526020600020905b815481529060010190602001808311610c1957829003601f168201915b50505050509550955095509550955095509550909192939495565b60008073ffffffffffffffffffffffffffffffffffffffff168273ffffffffffffffffffffffffffffffffffffffff1603610cc45760006040517f89c62b64000000000000000000000000000000000000000000000000000000008152600401610cbb9190612637565b60405180910390fd5b600360008373ffffffffffffffffffffffffffffffffffffffff1673ffffffffffffffffffffffffffffffffffffffff168152602001908152602001600020549050919050565b610d136112a9565b610d1d60006117d9565b565b6000600760009054906101000a900473ffffffffffffffffffffffffffffffffffffffff16905090565b606060018054610d5890612ae0565b80601f0160208091040260200160405190810160405280929190818152602001828054610d8490612ae0565b8015610dd15780601f10610da657610100808354040283529160200191610dd1565b820191906000526020600020905b815481529060010190602001808311610db457829003601f168201915b5050505050905090565b610ded610de661128f565b838361189f565b5050565b610dfc84848461068d565b610e10610e0761128f565b85858585611a0e565b50505050565b6060610e21826111ca565b506000600660008481526020019081526020016000208054610e4290612ae0565b80601f0160208091040260200160405190810160405280929190818152602001828054610e6e90612ae0565b8015610ebb5780601f10610e9057610100808354040283529160200191610ebb565b820191906000526020600020905b815481529060010190602001808311610e9e57829003601f168201915b505050505090506000610ecc611bbf565b90506000815103610ee1578192505050610f24565b600082511115610f16578082604051602001610efe929190612ddf565b60405160208183030381529060405292505050610f24565b610f1f84611bd6565b925050505b919050565b3373ffffffffffffffffffffffffffffffffffffffff16610f4982610b45565b73ffffffffffffffffffffffffffffffffffffffff1614610f9f576040517f08c379a0000000000000000000000000000000000000000000000000000000008152600401610f9690612e4f565b60405180910390fd5b6001600f600083815260200190815260200160002060006101000a81548160ff02191690831515021790555050565b6000600560008473ffffffffffffffffffffffffffffffffffffffff1673ffffffffffffffffffffffffffffffffffffffff16815260200190815260200160002060008373ffffffffffffffffffffffffffffffffffffffff1673ffffffffffffffffffffffffffffffffffffffff16815260200190815260200160002060009054906101000a900460ff16905092915050565b61106a6112a9565b600073ffffffffffffffffffffffffffffffffffffffff168173ffffffffffffffffffffffffffffffffffffffff16036110dc5760006040517f1e4fbdf70000000000000000000000000000000000000000000000000000000081526004016110d39190612637565b60405180910390fd5b6110e5816117d9565b50565b60007f80ac58cd000000000000000000000000000000000000000000000000000000007bffffffffffffffffffffffffffffffffffffffffffffffffffffffff1916827bffffffffffffffffffffffffffffffffffffffffffffffffffffffff191614806111b357507f5b5e139f000000000000000000000000000000000000000000000000000000007bffffffffffffffffffffffffffffffffffffffffffffffffffffffff1916827bffffffffffffffffffffffffffffffffffffffffffffffffffffffff1916145b806111c357506111c282611c3f565b5b9050919050565b6000806111d683611ca9565b9050600073ffffffffffffffffffffffffffffffffffffffff168173ffffffffffffffffffffffffffffffffffffffff160361124957826040517f7e2732890000000000000000000000000000000000000000000000000000000081526004016112409190612832565b60405180910390fd5b80915050919050565b60006004600083815260200190815260200160002060009054906101000a900473ffffffffffffffffffffffffffffffffffffffff169050919050565b600033905090565b6112a48383836001611ce6565b505050565b6112b161128f565b73ffffffffffffffffffffffffffffffffffffffff166112cf610d1f565b73ffffffffffffffffffffffffffffffffffffffff161461132e576112f261128f565b6040517f118cdaa70000000000000000000000000000000000000000000000000000000081526004016113259190612637565b60405180910390fd5b565b60008061133c84611ca9565b9050600073ffffffffffffffffffffffffffffffffffffffff168373ffffffffffffffffffffffffffffffffffffffff161461137e5761137d818486611eab565b5b600073ffffffffffffffffffffffffffffffffffffffff168173ffffffffffffffffffffffffffffffffffffffff161461140f576113c0600085600080611ce6565b6001600360008373ffffffffffffffffffffffffffffffffffffffff1673ffffffffffffffffffffffffffffffffffffffff168152602001908152602001600020600082825403925050819055505b600073ffffffffffffffffffffffffffffffffffffffff168573ffffffffffffffffffffffffffffffffffffffff1614611492576001600360008773ffffffffffffffffffffffffffffffffffffffff1673ffffffffffffffffffffffffffffffffffffffff168152602001908152602001600020600082825401925050819055505b846002600086815260200190815260200160002060006101000a81548173ffffffffffffffffffffffffffffffffffffffff021916908373ffffffffffffffffffffffffffffffffffffffff160217905550838573ffffffffffffffffffffffffffffffffffffffff168273ffffffffffffffffffffffffffffffffffffffff167fddf252ad1be2c89b69c2b068fc378daa952ba7f163c4a11628f55a4df523b3ef60405160405180910390a4809150509392505050565b600073ffffffffffffffffffffffffffffffffffffffff168273ffffffffffffffffffffffffffffffffffffffff16036115bc5760006040517f64a0ae920000000000000000000000000000000000000000000000000000000081526004016115b39190612637565b60405180910390fd5b60006115ca83836000611330565b9050600073ffffffffffffffffffffffffffffffffffffffff168173ffffffffffffffffffffffffffffffffffffffff161461163e5760006040517f73c6ac6e0000000000000000000000000000000000000000000000000000000081526004016116359190612637565b60405180910390fd5b505050565b60606000611753600860000161165885611f6f565b60086000016008600601600860000161167089611f6f565b611691670de0b6b3a764000060086002015461168c9190612e9e565b611f6f565b600f60008c815260200190815260200160002060009054906101000a900460ff166116f1576040518060400160405280600581526020017f56616c6964000000000000000000000000000000000000000000000000000000815250611728565b6040518060400160405280600481526020017f55736564000000000000000000000000000000000000000000000000000000008152505b60405160200161173f989796959493929190613427565b60405160208183030381529060405261203d565b905080604051602001611766919061357f565b604051602081830303815290604052915050919050565b8060066000848152602001908152602001600020908161179d9190613738565b507ff8e1a15aba9398e019f0b49df1a4fde98ee17ae345cb5f6b5e2c27f5033e8ce7826040516117cd9190612832565b60405180910390a15050565b6000600760009054906101000a900473ffffffffffffffffffffffffffffffffffffffff16905081600760006101000a81548173ffffffffffffffffffffffffffffffffffffffff021916908373ffffffffffffffffffffffffffffffffffffffff1602179055508173ffffffffffffffffffffffffffffffffffffffff168173ffffffffffffffffffffffffffffffffffffffff167f8be0079c531659141344cd1fd0a4f28419497f9722a3daafe3b4186f6b6457e060405160405180910390a35050565b600073ffffffffffffffffffffffffffffffffffffffff168273ffffffffffffffffffffffffffffffffffffffff160361191057816040517f5b08ba180000000000000000000000000000000000000000000000000000000081526004016119079190612637565b60405180910390fd5b80600560008573ffffffffffffffffffffffffffffffffffffffff1673ffffffffffffffffffffffffffffffffffffffff16815260200190815260200160002060008473ffffffffffffffffffffffffffffffffffffffff1673ffffffffffffffffffffffffffffffffffffffff16815260200190815260200160002060006101000a81548160ff0219169083151502179055508173ffffffffffffffffffffffffffffffffffffffff168373ffffffffffffffffffffffffffffffffffffffff167f17307eab39ab6107e8899845ad3d59bd9653f200f220920489ca2b5937696c3183604051611a0191906124c6565b60405180910390a3505050565b60008373ffffffffffffffffffffffffffffffffffffffff163b1115611bb8578273ffffffffffffffffffffffffffffffffffffffff1663150b7a02868685856040518563ffffffff1660e01b8152600401611a6d949392919061385f565b6020604051808303816000875af1925050508015611aa957506040513d601f19601f82011682018060405250810190611aa691906138c0565b60015b611b2d573d8060008114611ad9576040519150601f19603f3d011682016040523d82523d6000602084013e611ade565b606091505b506000815103611b2557836040517f64a0ae92000000000000000000000000000000000000000000000000000000008152600401611b1c9190612637565b60405180910390fd5b805160208201fd5b63150b7a0260e01b7bffffffffffffffffffffffffffffffffffffffffffffffffffffffff1916817bffffffffffffffffffffffffffffffffffffffffffffffffffffffff191614611bb657836040517f64a0ae92000000000000000000000000000000000000000000000000000000008152600401611bad9190612637565b60405180910390fd5b505b5050505050565b606060405180602001604052806000815250905090565b6060611be1826111ca565b506000611bec611bbf565b90506000815111611c0c5760405180602001604052806000815250611c37565b80611c1684611f6f565b604051602001611c27929190612ddf565b6040516020818303038152906040525b915050919050565b60007f01ffc9a7000000000000000000000000000000000000000000000000000000007bffffffffffffffffffffffffffffffffffffffffffffffffffffffff1916827bffffffffffffffffffffffffffffffffffffffffffffffffffffffff1916149050919050565b60006002600083815260200190815260200160002060009054906101000a900473ffffffffffffffffffffffffffffffffffffffff169050919050565b8080611d1f5750600073ffffffffffffffffffffffffffffffffffffffff168273ffffffffffffffffffffffffffffffffffffffff1614155b15611e53576000611d2f846111ca565b9050600073ffffffffffffffffffffffffffffffffffffffff168373ffffffffffffffffffffffffffffffffffffffff1614158015611d9a57508273ffffffffffffffffffffffffffffffffffffffff168173ffffffffffffffffffffffffffffffffffffffff1614155b8015611dad5750611dab8184610fce565b155b15611def57826040517fa9fbf51f000000000000000000000000000000000000000000000000000000008152600401611de69190612637565b60405180910390fd5b8115611e5157838573ffffffffffffffffffffffffffffffffffffffff168273ffffffffffffffffffffffffffffffffffffffff167f8c5be1e5ebec7d5bd14f71427d1e84f3dd0314c0f7b2291e5b200ac8c7c3b92560405160405180910390a45b505b836004600085815260200190815260200160002060006101000a81548173ffffffffffffffffffffffffffffffffffffffff021916908373ffffffffffffffffffffffffffffffffffffffff16021790555050505050565b611eb683838361206a565b611f6a57600073ffffffffffffffffffffffffffffffffffffffff168373ffffffffffffffffffffffffffffffffffffffff1603611f2b57806040517f7e273289000000000000000000000000000000000000000000000000000000008152600401611f229190612832565b60405180910390fd5b81816040517f177e802f000000000000000000000000000000000000000000000000000000008152600401611f619291906138ed565b60405180910390fd5b505050565b606060006001611f7e8461212b565b01905060008167ffffffffffffffff811115611f9d57611f9c6128c3565b5b6040519080825280601f01601f191660200182016040528015611fcf5781602001600182028036833780820191505090505b509050600082602083010190505b600115612032578080600190039150507f3031323334353637383961626364656600000000000000000000000000000000600a86061a8153600a858161202657612025612e6f565b5b04945060008503611fdd575b819350505050919050565b60606120638260405180606001604052806040815260200161398d60409139600161227e565b9050919050565b60008073ffffffffffffffffffffffffffffffffffffffff168373ffffffffffffffffffffffffffffffffffffffff161415801561212257508273ffffffffffffffffffffffffffffffffffffffff168473ffffffffffffffffffffffffffffffffffffffff1614806120e357506120e28484610fce565b5b8061212157508273ffffffffffffffffffffffffffffffffffffffff1661210983611252565b73ffffffffffffffffffffffffffffffffffffffff16145b5b90509392505050565b600080600090507a184f03e93ff9f4daa797ed6e38ed64bf6a1f0100000000000000008310612189577a184f03e93ff9f4daa797ed6e38ed64bf6a1f010000000000000000838161217f5761217e612e6f565b5b0492506040810190505b6d04ee2d6d415b85acef810000000083106121c6576d04ee2d6d415b85acef810000000083816121bc576121bb612e6f565b5b0492506020810190505b662386f26fc1000083106121f557662386f26fc1000083816121eb576121ea612e6f565b5b0492506010810190505b6305f5e100831061221e576305f5e100838161221457612213612e6f565b5b0492506008810190505b612710831061224357612710838161223957612238612e6f565b5b0492506004810190505b60648310612266576064838161225c5761225b612e6f565b5b0492506002810190505b600a8310612275576001810190505b80915050919050565b606060008451036122a05760405180602001604052806000815250905061240b565b6000826122d25760036002865160046122b99190613916565b6122c39190613958565b6122cd9190612e9e565b6122f9565b6003600286516122e29190613958565b6122ec9190612e9e565b60046122f89190613916565b5b905060008167ffffffffffffffff811115612317576123166128c3565b5b6040519080825280601f01601f1916602001820160405280156123495781602001600182028036833780820191505090505b50905060018501602082018788518901602081018051600082525b828410156123bf576003840193508351603f8160121c168701518653600186019550603f81600c1c168701518653600186019550603f8160061c168701518653600186019550603f8116870151865360018601955050612364565b80825289156123ff5760038c5106600181146123e257600281146123f5576123fd565b603d6001870353603d60028703536123fd565b603d60018703535b505b50505050505080925050505b9392505050565b6000604051905090565b600080fd5b600080fd5b60007fffffffff0000000000000000000000000000000000000000000000000000000082169050919050565b61245b81612426565b811461246657600080fd5b50565b60008135905061247881612452565b92915050565b6000602082840312156124945761249361241c565b5b60006124a284828501612469565b91505092915050565b60008115159050919050565b6124c0816124ab565b82525050565b60006020820190506124db60008301846124b7565b92915050565b600081519050919050565b600082825260208201905092915050565b60005b8381101561251b578082015181840152602081019050612500565b60008484015250505050565b6000601f19601f8301169050919050565b6000612543826124e1565b61254d81856124ec565b935061255d8185602086016124fd565b61256681612527565b840191505092915050565b6000602082019050818103600083015261258b8184612538565b905092915050565b6000819050919050565b6125a681612593565b81146125b157600080fd5b50565b6000813590506125c38161259d565b92915050565b6000602082840312156125df576125de61241c565b5b60006125ed848285016125b4565b91505092915050565b600073ffffffffffffffffffffffffffffffffffffffff82169050919050565b6000612621826125f6565b9050919050565b61263181612616565b82525050565b600060208201905061264c6000830184612628565b92915050565b61265b81612616565b811461266657600080fd5b50565b60008135905061267881612652565b92915050565b600080604083850312156126955761269461241c565b5b60006126a385828601612669565b92505060206126b4858286016125b4565b9150509250929050565b6000806000606084860312156126d7576126d661241c565b5b60006126e586828701612669565b93505060206126f686828701612669565b9250506040612707868287016125b4565b9150509250925092565b61271a81612593565b82525050565b600060e082019050818103600083015261273a818a612538565b90506127496020830189612711565b6127566040830188612711565b6127636060830187612711565b6127706080830186612711565b61277d60a08301856124b7565b81810360c083015261278f8184612538565b905098975050505050505050565b600060c08201905081810360008301526127b78189612538565b90506127c66020830188612711565b6127d36040830187612711565b6127e06060830186612711565b6127ed6080830185612711565b6127fa60a08301846124b7565b979650505050505050565b60006020828403121561281b5761281a61241c565b5b600061282984828501612669565b91505092915050565b60006020820190506128476000830184612711565b92915050565b612856816124ab565b811461286157600080fd5b50565b6000813590506128738161284d565b92915050565b600080604083850312156128905761288f61241c565b5b600061289e85828601612669565b92505060206128af85828601612864565b9150509250929050565b600080fd5b600080fd5b7f4e487b7100000000000000000000000000000000000000000000000000000000600052604160045260246000fd5b6128fb82612527565b810181811067ffffffffffffffff8211171561291a576129196128c3565b5b80604052505050565b600061292d612412565b905061293982826128f2565b919050565b600067ffffffffffffffff821115612959576129586128c3565b5b61296282612527565b9050602081019050919050565b82818337600083830152505050565b600061299161298c8461293e565b612923565b9050828152602081018484840111156129ad576129ac6128be565b5b6129b884828561296f565b509392505050565b600082601f8301126129d5576129d46128b9565b5b81356129e584826020860161297e565b91505092915050565b60008060008060808587031215612a0857612a0761241c565b5b6000612a1687828801612669565b9450506020612a2787828801612669565b9350506040612a38878288016125b4565b925050606085013567ffffffffffffffff811115612a5957612a58612421565b5b612a65878288016129c0565b91505092959194509250565b60008060408385031215612a8857612a8761241c565b5b6000612a9685828601612669565b9250506020612aa785828601612669565b9150509250929050565b7f4e487b7100000000000000000000000000000000000000000000000000000000600052602260045260246000fd5b60006002820490506001821680612af857607f821691505b602082108103612b0b57612b0a612ab1565b5b50919050565b6000606082019050612b266000830186612628565b612b336020830185612711565b612b406040830184612628565b949350505050565b7f43616e6e6f742077697468647261772079657400000000000000000000000000600082015250565b6000612b7e6013836124ec565b9150612b8982612b48565b602082019050919050565b60006020820190508181036000830152612bad81612b71565b9050919050565b7f4576656e74206e6f742061637469766500000000000000000000000000000000600082015250565b6000612bea6010836124ec565b9150612bf582612bb4565b602082019050919050565b60006020820190508181036000830152612c1981612bdd565b9050919050565b7f536f6c64206f7574000000000000000000000000000000000000000000000000600082015250565b6000612c566008836124ec565b9150612c6182612c20565b602082019050919050565b60006020820190508181036000830152612c8581612c49565b9050919050565b7f496e73756666696369656e74207061796d656e74000000000000000000000000600082015250565b6000612cc26014836124ec565b9150612ccd82612c8c565b602082019050919050565b60006020820190508181036000830152612cf181612cb5565b9050919050565b7f4e487b7100000000000000000000000000000000000000000000000000000000600052601160045260246000fd5b6000612d3282612593565b91507fffffffffffffffffffffffffffffffffffffffffffffffffffffffffffffffff8203612d6457612d63612cf8565b5b600182019050919050565b6000612d7a82612593565b9150612d8583612593565b9250828203905081811115612d9d57612d9c612cf8565b5b92915050565b600081905092915050565b6000612db9826124e1565b612dc38185612da3565b9350612dd38185602086016124fd565b80840191505092915050565b6000612deb8285612dae565b9150612df78284612dae565b91508190509392505050565b7f4e6f74207469636b6574206f776e657200000000000000000000000000000000600082015250565b6000612e396010836124ec565b9150612e4482612e03565b602082019050919050565b60006020820190508181036000830152612e6881612e2c565b9050919050565b7f4e487b7100000000000000000000000000000000000000000000000000000000600052601260045260246000fd5b6000612ea982612593565b9150612eb483612593565b925082612ec457612ec3612e6f565b5b828204905092915050565b7f7b226e616d65223a202200000000000000000000000000000000000000000000600082015250565b6000612f05600a83612da3565b9150612f1082612ecf565b600a82019050919050565b60008190508160005260206000209050919050565b60008154612f3d81612ae0565b612f478186612da3565b94506001821660008114612f625760018114612f7757612faa565b60ff1983168652811515820286019350612faa565b612f8085612f1b565b60005b83811015612fa257815481890152600182019150602081019050612f83565b838801955050505b50505092915050565b7f202d205469636b65742023000000000000000000000000000000000000000000600082015250565b6000612fe9600b83612da3565b9150612ff482612fb3565b600b82019050919050565b7f222c20226465736372697074696f6e223a20224e4654207469636b657420666f60008201527f7220000000000000000000000000000000000000000000000000000000000000602082015250565b600061305b602283612da3565b915061306682612fff565b602282019050919050565b7f2e2056616c69642070726f6f66206f6620617474656e64616e636520616e642060008201527f6163636573732e222c2022696d616765223a2022000000000000000000000000602082015250565b60006130cd603483612da3565b91506130d882613071565b603482019050919050565b7f222c202261747472696275746573223a205b0000000000000000000000000000600082015250565b6000613119601283612da3565b9150613124826130e3565b601282019050919050565b7f7b2274726169745f74797065223a20224576656e74222c202276616c7565223a60008201527f2022000000000000000000000000000000000000000000000000000000000000602082015250565b600061318b602283612da3565b91506131968261312f565b602282019050919050565b7f227d2c0000000000000000000000000000000000000000000000000000000000600082015250565b60006131d7600383612da3565b91506131e2826131a1565b600382019050919050565b7f7b2274726169745f74797065223a20225469636b6574204e756d626572222c2060008201527f2276616c7565223a202200000000000000000000000000000000000000000000602082015250565b6000613249602a83612da3565b9150613254826131ed565b602a82019050919050565b7f7b2274726169745f74797065223a20225072696365222c202276616c7565223a60008201527f2022000000000000000000000000000000000000000000000000000000000000602082015250565b60006132bb602283612da3565b91506132c68261325f565b602282019050919050565b7f2056455259227d2c000000000000000000000000000000000000000000000000600082015250565b6000613307600883612da3565b9150613312826132d1565b600882019050919050565b7f7b2274726169745f74797065223a2022537461747573222c202276616c75652260008201527f3a20220000000000000000000000000000000000000000000000000000000000602082015250565b6000613379602383612da3565b91506133848261331d565b602382019050919050565b7f227d000000000000000000000000000000000000000000000000000000000000600082015250565b60006133c5600283612da3565b91506133d08261338f565b600282019050919050565b7f5d7d000000000000000000000000000000000000000000000000000000000000600082015250565b6000613411600283612da3565b915061341c826133db565b600282019050919050565b600061343282612ef8565b915061343e828b612f30565b915061344982612fdc565b9150613455828a612dae565b91506134608261304e565b915061346c8289612f30565b9150613477826130c0565b91506134838288612f30565b915061348e8261310c565b91506134998261317e565b91506134a58287612f30565b91506134b0826131ca565b91506134bb8261323c565b91506134c78286612dae565b91506134d2826131ca565b91506134dd826132ae565b91506134e98285612dae565b91506134f4826132fa565b91506134ff8261336c565b915061350b8284612dae565b9150613516826133b8565b915061352182613404565b91508190509998505050505050505050565b7f646174613a6170706c69636174696f6e2f6a736f6e3b6261736536342c000000600082015250565b6000613569601d83612da3565b915061357482613533565b601d82019050919050565b600061358a8261355c565b91506135968284612dae565b915081905092915050565b60006020601f8301049050919050565b600082821b905092915050565b6000600883026135ee7fffffffffffffffffffffffffffffffffffffffffffffffffffffffffffffffff826135b1565b6135f886836135b1565b95508019841693508086168417925050509392505050565b6000819050919050565b600061363561363061362b84612593565b613610565b612593565b9050919050565b6000819050919050565b61364f8361361a565b61366361365b8261363c565b8484546135be565b825550505050565b600090565b61367861366b565b613683818484613646565b505050565b5b818110156136a75761369c600082613670565b600181019050613689565b5050565b601f8211156136ec576136bd81612f1b565b6136c6846135a1565b810160208510156136d5578190505b6136e96136e1856135a1565b830182613688565b50505b505050565b600082821c905092915050565b600061370f600019846008026136f1565b1980831691505092915050565b600061372883836136fe565b9150826002028217905092915050565b613741826124e1565b67ffffffffffffffff81111561375a576137596128c3565b5b6137648254612ae0565b61376f8282856136ab565b600060209050601f8311600181146137a25760008415613790578287015190505b61379a858261371c565b865550613802565b601f1984166137b086612f1b565b60005b828110156137d8578489015182556001820191506020850194506020810190506137b3565b868310156137f557848901516137f1601f8916826136fe565b8355505b6001600288020188555050505b505050505050565b600081519050919050565b600082825260208201905092915050565b60006138318261380a565b61383b8185613815565b935061384b8185602086016124fd565b61385481612527565b840191505092915050565b60006080820190506138746000830187612628565b6138816020830186612628565b61388e6040830185612711565b81810360608301526138a08184613826565b905095945050505050565b6000815190506138ba81612452565b92915050565b6000602082840312156138d6576138d561241c565b5b60006138e4848285016138ab565b91505092915050565b60006040820190506139026000830185612628565b61390f6020830184612711565b9392505050565b600061392182612593565b915061392c83612593565b925082820261393a81612593565b9150828204841483151761395157613950612cf8565b5b5092915050565b600061396382612593565b915061396e83612593565b925082820190508082111561398657613985612cf8565b5b9291505056fe4142434445464748494a4b4c4d4e4f505152535455565758595a6162636465666768696a6b6c6d6e6f707172737475767778797a303132333435363738392b2fa2646970667358221220bae2e95dbca10265d5dd160e4403467400f224387559982f0b47862e5c3631c564736f6c63430008140033a2646970667358221220f648cb353f9c723e9f88dee0e3a6fa06390610f55097ee06c85b6ec4c33bb0f264736f6c63430008140033",
  "linkReferences": {},
  "deployedLinkReferences": {}
}